:100000000C9434000C943E000C943E000C943E0082
:100010000C943E000C943E000C943E000C943E0068
:100020000C943E000C943E000C943E000C943E0058
:100030000C943E000C943E000C943E000C943E0048
:100040000C943E000C943E000C943E000C943E0038
:100050000C943E000C943E000C943E000C943E0028
:100060000C943E000C943E0011241FBECFEFD8E04C
:10007000DEBFCDBF0E9440000C945F000C940000D6
:100080008AB18B7F8AB98BB184608BB987B1846068
:1000900087B94A99FECF98B184E0892788B939B1E8
:1000A00029B181E090E0332311F080E090E002C0BC
:1000B000959587952A95E2F780FDF1CFEACFF894E0
:0200C000FFCF70
:00000001FF
