:100000000C9434000C943E000C943E000C943E0082
:100010000C943E000C943E000C943E000C943E0068
:100020000C943E000C943E000C943E000C943E0058
:100030000C943E000C943E000C943E000C943E0048
:100040000C943E000C943E000C943E000C943E0038
:100050000C943E000C943E000C943E000C943E0028
:100060000C943E000C943E0011241FBECFEFD8E04C
:10007000DEBFCDBF0E9440000C946D000C940000C8
:100080008FE18AB985E18BB92FEF81EE94E02150A1
:1000900080409040E1F700C000001BB82FEF81EED8
:1000A00094E0215080409040E1F700C000008AE0D9
:1000B0008BB92FEF81EE94E0215080409040E1F722
:1000C00000C000001BB82FEF81EE94E0215080406B
:0E00D0009040E1F700C00000D5CFF894FFCFBC
:00000001FF
