S02400006C65645F626C696E6B5F7573696E675F74696D6572305F64656C61792E73726563B9
S11300000C9434000C943E000C943E000C943E007E
S11300100C943E000C943E000C943E000C943E0064
S11300200C943E000C943E000C943E000C943E0054
S11300300C943E000C943E000C943E000C943E0044
S11300400C943E000C943E000C943E000C943E0034
S11300500C943E000C943E000C943E000C943E0024
S11300600C943E000C943E0011241FBECFEFD8E048
S1130070DEBFCDBF0E945C000C9469000C940000AC
S113008016BC84B58C7F84BD85B5877F85BD85B559
S1130090897F85BD85B5816085BD20E030E007C0DE
S11300A0A89BFECF85B3816085BB2F5F3F4F243271
S11300B084EF3807A8F3089584B1846084B985B1C6
S11300C0847085B995B184E0892785B90E94400080
S10900D0F9CFF894FFCF04
S9030000FC
